{
  "contractName": "ERC721Enumerable",
  "abi": [
    {
      "inputs": [],
      "payable": false,
      "stateMutability": "nonpayable",
      "type": "constructor"
    },
    {
      "anonymous": false,
      "inputs": [
        {
          "indexed": true,
          "internalType": "address",
          "name": "owner",
          "type": "address"
        },
        {
          "indexed": true,
          "internalType": "address",
          "name": "approved",
          "type": "address"
        },
        {
          "indexed": true,
          "internalType": "uint256",
          "name": "tokenId",
          "type": "uint256"
        }
      ],
      "name": "Approval",
      "type": "event"
    },
    {
      "anonymous": false,
      "inputs": [
        {
          "indexed": true,
          "internalType": "address",
          "name": "owner",
          "type": "address"
        },
        {
          "indexed": true,
          "internalType": "address",
          "name": "operator",
          "type": "address"
        },
        {
          "indexed": false,
          "internalType": "bool",
          "name": "approved",
          "type": "bool"
        }
      ],
      "name": "ApprovalForAll",
      "type": "event"
    },
    {
      "anonymous": false,
      "inputs": [
        {
          "indexed": false,
          "internalType": "address",
          "name": "newOwner",
          "type": "address"
        }
      ],
      "name": "OwnershipTransferred",
      "type": "event"
    },
    {
      "anonymous": false,
      "inputs": [
        {
          "indexed": false,
          "internalType": "address",
          "name": "pausedBy",
          "type": "address"
        }
      ],
      "name": "Paused",
      "type": "event"
    },
    {
      "anonymous": false,
      "inputs": [
        {
          "indexed": true,
          "internalType": "address",
          "name": "from",
          "type": "address"
        },
        {
          "indexed": true,
          "internalType": "address",
          "name": "to",
          "type": "address"
        },
        {
          "indexed": true,
          "internalType": "uint256",
          "name": "tokenId",
          "type": "uint256"
        }
      ],
      "name": "Transfer",
      "type": "event"
    },
    {
      "anonymous": false,
      "inputs": [
        {
          "indexed": false,
          "internalType": "address",
          "name": "unPausedBy",
          "type": "address"
        }
      ],
      "name": "Unpaused",
      "type": "event"
    },
    {
      "constant": true,
      "inputs": [],
      "name": "Owner",
      "outputs": [
        {
          "internalType": "address",
          "name": "",
          "type": "address"
        }
      ],
      "payable": false,
      "stateMutability": "view",
      "type": "function"
    },
    {
      "constant": false,
      "inputs": [
        {
          "internalType": "bool",
          "name": "paused",
          "type": "bool"
        }
      ],
      "name": "Pause",
      "outputs": [],
      "payable": false,
      "stateMutability": "nonpayable",
      "type": "function"
    },
    {
      "constant": false,
      "inputs": [
        {
          "internalType": "address",
          "name": "to",
          "type": "address"
        },
        {
          "internalType": "uint256",
          "name": "tokenId",
          "type": "uint256"
        }
      ],
      "name": "approve",
      "outputs": [],
      "payable": false,
      "stateMutability": "nonpayable",
      "type": "function"
    },
    {
      "constant": true,
      "inputs": [
        {
          "internalType": "address",
          "name": "owner",
          "type": "address"
        }
      ],
      "name": "balanceOf",
      "outputs": [
        {
          "internalType": "uint256",
          "name": "",
          "type": "uint256"
        }
      ],
      "payable": false,
      "stateMutability": "view",
      "type": "function"
    },
    {
      "constant": true,
      "inputs": [
        {
          "internalType": "uint256",
          "name": "tokenId",
          "type": "uint256"
        }
      ],
      "name": "getApproved",
      "outputs": [
        {
          "internalType": "address",
          "name": "",
          "type": "address"
        }
      ],
      "payable": false,
      "stateMutability": "view",
      "type": "function"
    },
    {
      "constant": true,
      "inputs": [
        {
          "internalType": "address",
          "name": "owner",
          "type": "address"
        },
        {
          "internalType": "address",
          "name": "operator",
          "type": "address"
        }
      ],
      "name": "isApprovedForAll",
      "outputs": [
        {
          "internalType": "bool",
          "name": "",
          "type": "bool"
        }
      ],
      "payable": false,
      "stateMutability": "view",
      "type": "function"
    },
    {
      "constant": true,
      "inputs": [
        {
          "internalType": "uint256",
          "name": "tokenId",
          "type": "uint256"
        }
      ],
      "name": "ownerOf",
      "outputs": [
        {
          "internalType": "address",
          "name": "",
          "type": "address"
        }
      ],
      "payable": false,
      "stateMutability": "view",
      "type": "function"
    },
    {
      "constant": false,
      "inputs": [
        {
          "internalType": "address",
          "name": "from",
          "type": "address"
        },
        {
          "internalType": "address",
          "name": "to",
          "type": "address"
        },
        {
          "internalType": "uint256",
          "name": "tokenId",
          "type": "uint256"
        }
      ],
      "name": "safeTransferFrom",
      "outputs": [],
      "payable": false,
      "stateMutability": "nonpayable",
      "type": "function"
    },
    {
      "constant": false,
      "inputs": [
        {
          "internalType": "address",
          "name": "from",
          "type": "address"
        },
        {
          "internalType": "address",
          "name": "to",
          "type": "address"
        },
        {
          "internalType": "uint256",
          "name": "tokenId",
          "type": "uint256"
        },
        {
          "internalType": "bytes",
          "name": "_data",
          "type": "bytes"
        }
      ],
      "name": "safeTransferFrom",
      "outputs": [],
      "payable": false,
      "stateMutability": "nonpayable",
      "type": "function"
    },
    {
      "constant": false,
      "inputs": [
        {
          "internalType": "address",
          "name": "to",
          "type": "address"
        },
        {
          "internalType": "bool",
          "name": "approved",
          "type": "bool"
        }
      ],
      "name": "setApprovalForAll",
      "outputs": [],
      "payable": false,
      "stateMutability": "nonpayable",
      "type": "function"
    },
    {
      "constant": true,
      "inputs": [
        {
          "internalType": "bytes4",
          "name": "interfaceId",
          "type": "bytes4"
        }
      ],
      "name": "supportsInterface",
      "outputs": [
        {
          "internalType": "bool",
          "name": "",
          "type": "bool"
        }
      ],
      "payable": false,
      "stateMutability": "view",
      "type": "function"
    },
    {
      "constant": false,
      "inputs": [
        {
          "internalType": "address",
          "name": "from",
          "type": "address"
        },
        {
          "internalType": "address",
          "name": "to",
          "type": "address"
        },
        {
          "internalType": "uint256",
          "name": "tokenId",
          "type": "uint256"
        }
      ],
      "name": "transferFrom",
      "outputs": [],
      "payable": false,
      "stateMutability": "nonpayable",
      "type": "function"
    },
    {
      "constant": false,
      "inputs": [
        {
          "internalType": "address",
          "name": "newOwner",
          "type": "address"
        }
      ],
      "name": "transferOwnership",
      "outputs": [],
      "payable": false,
      "stateMutability": "nonpayable",
      "type": "function"
    },
    {
      "constant": true,
      "inputs": [
        {
          "internalType": "address",
          "name": "owner",
          "type": "address"
        },
        {
          "internalType": "uint256",
          "name": "index",
          "type": "uint256"
        }
      ],
      "name": "tokenOfOwnerByIndex",
      "outputs": [
        {
          "internalType": "uint256",
          "name": "",
          "type": "uint256"
        }
      ],
      "payable": false,
      "stateMutability": "view",
      "type": "function"
    },
    {
      "constant": true,
      "inputs": [],
      "name": "totalSupply",
      "outputs": [
        {
          "internalType": "uint256",
          "name": "",
          "type": "uint256"
        }
      ],
      "payable": false,
      "stateMutability": "view",
      "type": "function"
    },
    {
      "constant": true,
      "inputs": [
        {
          "internalType": "uint256",
          "name": "index",
          "type": "uint256"
        }
      ],
      "name": "tokenByIndex",
      "outputs": [
        {
          "internalType": "uint256",
          "name": "",
          "type": "uint256"
        }
      ],
      "payable": false,
      "stateMutability": "view",
      "type": "function"
    }
  ],
  "bytecode": "0x608060405234801561001057600080fd5b506000805460ff60a01b196001600160a01b031990911633171690556100456301ffc9a760e01b6001600160e01b0361007c16565b61005e6380ac58cd60e01b6001600160e01b0361007c16565b61007763780e9d6360e01b6001600160e01b0361007c16565b6100bb565b6001600160e01b0319808216141561009357600080fd5b6001600160e01b0319166000908152600160208190526040909120805460ff19169091179055565b611281806100ca6000396000f3fe608060405234801561001057600080fd5b50600436106101005760003560e01c80636352211e11610097578063b4a99a4e11610066578063b4a99a4e1461031e578063b88d4fde14610326578063e985e9c5146103ec578063f2fde38b1461041a57610100565b80636352211e1461028e57806370a08231146102ab5780639422424b146102d1578063a22cb465146102f057610100565b806323b872dd116100d357806323b872dd146101d95780632f745c591461020f57806342842e0e1461023b5780634f6ccce71461027157610100565b806301ffc9a714610105578063081812fc14610158578063095ea7b31461019157806318160ddd146101bf575b600080fd5b6101446004803603602081101561011b57600080fd5b50357fffffffff0000000000000000000000000000000000000000000000000000000016610440565b604080519115158252519081900360200190f35b6101756004803603602081101561016e57600080fd5b5035610477565b604080516001600160a01b039092168252519081900360200190f35b6101bd600480360360408110156101a757600080fd5b506001600160a01b0381351690602001356104e6565b005b6101c7610665565b60408051918252519081900360200190f35b6101bd600480360360608110156101ef57600080fd5b506001600160a01b0381358116916020810135909116906040013561066c565b6101c76004803603604081101561022557600080fd5b506001600160a01b03813516906020013561068f565b6101bd6004803603606081101561025157600080fd5b506001600160a01b038135811691602081013590911690604001356106dc565b6101c76004803603602081101561028757600080fd5b50356106f7565b610175600480360360208110156102a457600080fd5b503561072b565b6101c7600480360360208110156102c157600080fd5b50356001600160a01b0316610746565b6101bd600480360360208110156102e757600080fd5b5035151561076d565b6101bd6004803603604081101561030657600080fd5b506001600160a01b038135169060200135151561088e565b610175610912565b6101bd6004803603608081101561033c57600080fd5b6001600160a01b0382358116926020810135909116916040820135919081019060808101606082013564010000000081111561037757600080fd5b82018360208201111561038957600080fd5b803590602001918460018302840111640100000000831117156103ab57600080fd5b91908080601f016020809104026020016040519081016040528093929190818152602001838380828437600092019190915250929550610921945050505050565b6101446004803603604081101561040257600080fd5b506001600160a01b0381358116916020013516610947565b6101bd6004803603602081101561043057600080fd5b50356001600160a01b0316610975565b7fffffffff000000000000000000000000000000000000000000000000000000001660009081526001602052604090205460ff1690565b6000818152600360205260408120546001600160a01b03166104ca5760405162461bcd60e51b815260040180806020018281038252602581526020018061115f6025913960400191505060405180910390fd5b506000908152600360205260409020546001600160a01b031690565b6001600160a01b03821661052b5760405162461bcd60e51b81526004018080602001828103825260298152602001806111f96029913960400191505060405180910390fd5b6000818152600260205260409020546001600160a01b03838116911614156105845760405162461bcd60e51b81526004018080602001828103825260298152602001806111a56029913960400191505060405180910390fd5b6000818152600260205260409020546001600160a01b03163314806105b657506105b66105b08261072b565b33610947565b6105f15760405162461bcd60e51b815260040180806020018281038252602b8152602001806111ce602b913960400191505060405180910390fd5b6000818152600360209081526040808320805473ffffffffffffffffffffffffffffffffffffffff19166001600160a01b038781169182179092556002909352818420549151859492909116917f8c5be1e5ebec7d5bd14f71427d1e84f3dd0314c0f7b2291e5b200ac8c7c3b92591a45050565b6008545b90565b6106763382610a7f565b61067f57600080fd5b61068a838383610ade565b505050565b600061069a83610746565b82106106a557600080fd5b6001600160a01b03831660009081526006602052604090208054839081106106c957fe5b9060005260206000200154905092915050565b61068a83838360405180602001604052806000815250610921565b6000610701610665565b821061070c57600080fd5b6008828154811061071957fe5b90600052602060002001549050919050565b6000908152600260205260409020546001600160a01b031690565b6001600160a01b038116600090815260046020526040812061076790610afd565b92915050565b33610776610912565b6001600160a01b0316146107d1576040805162461bcd60e51b815260206004820181905260248201527f4f776e61626c653a2063616c6c6572206973206e6f7420746865206f776e6572604482015290519081900360640190fd5b600080548215801574010000000000000000000000000000000000000000027fffffffffffffffffffffff00ffffffffffffffffffffffffffffffffffffffff90921691909117909155610857576040805133815290517f62e78cea01bee320cd4e420270b5ea74000d11b0c9f74754ebdbfc544b05a2589181900360200190a161088b565b6040805133815290517f5db9ee0a495bf2e6ff9c91a7834c1ba4fdd244a5e8aa4e537bd38aeae4b073aa9181900360200190a15b50565b6001600160a01b0382163314156108a457600080fd5b3360008181526005602090815260408083206001600160a01b03871680855290835292819020805460ff1916861515908117909155815190815290519293927f17307eab39ab6107e8899845ad3d59bd9653f200f220920489ca2b5937696c31929181900390910190a35050565b6000546001600160a01b031690565b61092c84848461066c565b61093884848484610b01565b61094157600080fd5b50505050565b6001600160a01b03918216600090815260056020908152604080832093909416825291909152205460ff1690565b3361097e610912565b6001600160a01b0316146109d9576040805162461bcd60e51b815260206004820181905260248201527f4f776e61626c653a2063616c6c6572206973206e6f7420746865206f776e6572604482015290519081900360640190fd5b6001600160a01b038116610a1e5760405162461bcd60e51b81526004018080602001828103825260218152602001806111846021913960400191505060405180910390fd5b600080546001600160a01b03831673ffffffffffffffffffffffffffffffffffffffff19909116811790915560408051918252517f04dba622d284ed0014ee4b9a6a68386be1a4c08a4913ae272de89199cc6861639181900360200190a150565b600080610a8b8361072b565b9050806001600160a01b0316846001600160a01b03161480610ac65750836001600160a01b0316610abb84610477565b6001600160a01b0316145b80610ad65750610ad68185610947565b949350505050565b610ae9838383610c4c565b610af38382610e50565b61068a8282610f45565b5490565b6000610b15846001600160a01b0316610f83565b610b2157506001610ad6565b604051630a85bd0160e11b815233600482018181526001600160a01b03888116602485015260448401879052608060648501908152865160848601528651600095928a169463150b7a029490938c938b938b939260a4019060208501908083838e5b83811015610b9b578181015183820152602001610b83565b50505050905090810190601f168015610bc85780820380516001836020036101000a031916815260200191505b5095505050505050602060405180830381600087803b158015610bea57600080fd5b505af1158015610bfe573d6000803e3d6000fd5b505050506040513d6020811015610c1457600080fd5b50517fffffffff0000000000000000000000000000000000000000000000000000000016630a85bd0160e11b14915050949350505050565b610c558161072b565b6001600160a01b0316836001600160a01b031614610ca45760405162461bcd60e51b815260040180806020018281038252602b815260200180611222602b913960400191505060405180910390fd5b6001600160a01b038216610ce95760405162461bcd60e51b81526004018080602001828103825260298152602001806111f96029913960400191505060405180910390fd5b610cf281610fbc565b610d43576040805162461bcd60e51b815260206004820152601860248201527f4552433732313a20546f6b656e206d7573742065786973740000000000000000604482015290519081900360640190fd5b610d4c8161072b565b6001600160a01b0316826001600160a01b03161415610d9c5760405162461bcd60e51b81526004018080602001828103825260298152602001806111a56029913960400191505060405180910390fd5b610da581610fd9565b6001600160a01b0383166000908152600460205260409020610dc690611021565b6001600160a01b0382166000908152600460205260409020610de790611038565b600081815260026020526040808220805473ffffffffffffffffffffffffffffffffffffffff19166001600160a01b0386811691821790925591518493918716917fddf252ad1be2c89b69c2b068fc378daa952ba7f163c4a11628f55a4df523b3ef91a4505050565b6001600160a01b038216600090815260066020526040812054610e7a90600163ffffffff61104116565b600083815260076020526040902054909150808214610f15576001600160a01b0384166000908152600660205260408120805484908110610eb757fe5b906000526020600020015490508060066000876001600160a01b03166001600160a01b031681526020019081526020016000208381548110610ef557fe5b600091825260208083209091019290925591825260079052604090208190555b6001600160a01b0384166000908152600660205260409020805490610f3e906000198301611121565b5050505050565b6001600160a01b0390911660009081526006602081815260408084208054868652600784529185208290559282526001810183559183529091200155565b6000813f7fc5d2460186f7233c927e7db2dcc703c0e500b653ca82273b7bfad8045d85a470818114801590610ad6575050151592915050565b6000908152600260205260409020546001600160a01b0316151590565b6000818152600360205260409020546001600160a01b03161561088b576000908152600360205260409020805473ffffffffffffffffffffffffffffffffffffffff19169055565b805461103490600163ffffffff61104116565b9055565b80546001019055565b600061108383836040518060400160405280601e81526020017f536166654d6174683a207375627472616374696f6e206f766572666c6f77000081525061108a565b9392505050565b600081848411156111195760405162461bcd60e51b81526004018080602001828103825283818151815260200191508051906020019080838360005b838110156110de5781810151838201526020016110c6565b50505050905090810190601f16801561110b5780820380516001836020036101000a031916815260200191505b509250505060405180910390fd5b505050900390565b81548183558181111561068a5760008381526020902061068a91810190830161066991905b8082111561115a5760008155600101611146565b509056fe4552433732313a20546f6b656e20617070726f76616c20646f6573206e6f742065786973744f776e61626c653a20496e76616c6964207472616e7366657220616464726573734552433732313a20726563697069656e7420616c7265616479206f776e73207468697320746f6b656e4552433732313a204e6f7420617070726f76656420746f207472616e73666572207468697320746f6b656e4552433732313a20726563697069656e74206d75737420626520612076616c696420616464726573734552433732313a2066726f6d206164647265737320646f65736e2774206f776e207468697320746f6b656ea265627a7a72315820471430d28b27b2eee1d3ec94f6e262f63a3b4313a5131e8974ade658721230b464736f6c63430005110032",
  "source": "// SPDX-License-Identifier: MIT\r\npragma solidity >= 0.5.0;\r\n\r\nimport \"openzeppelin-solidity/contracts/utils/Address.sol\";\r\nimport \"openzeppelin-solidity/contracts/drafts/Counters.sol\";\r\nimport \"openzeppelin-solidity/contracts/math/SafeMath.sol\";\r\nimport \"openzeppelin-solidity/contracts/token/ERC721/IERC721Receiver.sol\";\r\nimport \"./Oraclize.sol\";\r\n\r\ncontract Ownable {\r\n    \r\n    /*  \r\n        Note from Flic Gibbs: Got some ideas from OpenZeppelin's Ownable.sol contract.\r\n        Personally, I would use the OpenZeppelin version rather than write my own,\r\n        but in the interests of completing the requirements I've done it here\r\n    */\r\n\r\n    address private _owner; //  1) create a private '_owner' variable of type address with a public getter function\r\n    \r\n    modifier onlyOwner() { //  3) create an 'onlyOwner' modifier that throws if called by any account other than the owner.\r\n        require(Owner() == msg.sender, \"Ownable: caller is not the owner\");\r\n        _;\r\n    }\r\n    \r\n    event OwnershipTransferred(address newOwner); //  5) create an event that emits anytime ownerShip is transfered (including in the constructor)\r\n\r\n    constructor () internal { //  2) create an internal constructor that sets the _owner var to the creater of the contract \r\n        _owner = msg.sender;\r\n    }\r\n\r\n    function transferOwnership(address newOwner) public onlyOwner { //  4) fill out the transferOwnership function\r\n        // TODO add functionality to transfer control of the contract to a newOwner.\r\n        // make sure the new owner is a real address\r\n        require(newOwner != address(0), \"Ownable: Invalid transfer address\");\r\n        _owner = newOwner;\r\n        emit OwnershipTransferred(newOwner); //  5) create an event that emits anytime ownerShip is transfered (including in the constructor)\r\n    }\r\n\r\n    function Owner() public view returns(address) { //  1) create a private '_owner' variable of type address with a public getter function\r\n        return _owner;\r\n    }\r\n}\r\n\r\ncontract Pausable is Ownable {  //  TODO's: Create a Pausable contract that inherits from the Ownable contract\r\n    bool _paused;   //  1) create a private '_paused' variable of type bool\r\n\r\n    //  4) create 'whenNotPaused' & 'paused' modifier that throws in the appropriate situation\r\n    modifier whenNotPaused() {\r\n        require(!_paused, \"Pausable: contract is paused\");\r\n        _;\r\n    }\r\n    modifier whenPaused() {\r\n        require(_paused, \"Pausable: contract is not paused\");\r\n        _;\r\n    }\r\n\r\n    //  5) create a Paused & Unpaused event that emits the address that triggered the event\r\n    event Paused(address pausedBy);\r\n    event Unpaused(address unPausedBy);\r\n\r\n    constructor () internal {\r\n        _paused = false;    //  3) create an internal constructor that sets the _paused variable to false\r\n    }\r\n\r\n    function Pause(bool paused) public onlyOwner {  //  2) create a public setter using the inherited onlyOwner modifier \r\n        _paused = paused;\r\n        if (paused)\r\n            emit Paused(msg.sender);\r\n        else\r\n            emit Unpaused(msg.sender);\r\n    }\r\n}\r\n\r\ncontract ERC165 {\r\n    bytes4 private constant _INTERFACE_ID_ERC165 = 0x01ffc9a7;\r\n    /*\r\n     * 0x01ffc9a7 ===\r\n     *     bytes4(keccak256('supportsInterface(bytes4)'))\r\n     */\r\n\r\n    /**\r\n     * @dev a mapping of interface id to whether or not it's supported\r\n     */\r\n    mapping(bytes4 => bool) private _supportedInterfaces;\r\n\r\n    /**\r\n     * @dev A contract implementing SupportsInterfaceWithLookup\r\n     * implement ERC165 itself\r\n     */\r\n    constructor () internal {\r\n        _registerInterface(_INTERFACE_ID_ERC165);\r\n    }\r\n\r\n    /**\r\n     * @dev implement supportsInterface(bytes4) using a lookup table\r\n     */\r\n    function supportsInterface(bytes4 interfaceId) external view returns (bool) {\r\n        return _supportedInterfaces[interfaceId];\r\n    }\r\n\r\n    /**\r\n     * @dev internal method for registering an interface\r\n     */\r\n    function _registerInterface(bytes4 interfaceId) internal {\r\n        require(interfaceId != 0xffffffff);\r\n        _supportedInterfaces[interfaceId] = true;\r\n    }\r\n}\r\n\r\ncontract ERC721 is Pausable, ERC165 {\r\n    // Could just use OpenZeppelin's ERC721?\r\n\r\n    event Transfer(address indexed from, address indexed to, uint256 indexed tokenId);\r\n\r\n    event Approval(address indexed owner, address indexed approved, uint256 indexed tokenId);\r\n\r\n    event ApprovalForAll(address indexed owner, address indexed operator, bool approved);\r\n    \r\n    using SafeMath for uint256;\r\n    using Address for address;\r\n    using Counters for Counters.Counter;\r\n\r\n    // Equals to `bytes4(keccak256(\"onERC721Received(address,address,uint256,bytes)\"))`\r\n    // which can be also obtained as `IERC721Receiver(0).onERC721Received.selector`\r\n    bytes4 private constant _ERC721_RECEIVED = 0x150b7a02;\r\n\r\n    // Mapping from token ID to owner\r\n    mapping (uint256 => address) private _tokenOwner;\r\n\r\n    // Mapping from token ID to approved address\r\n    mapping (uint256 => address) private _tokenApprovals;\r\n\r\n    // Mapping from owner to number of owned token\r\n    // IMPORTANT: this mapping uses Counters lib which is used to protect overflow when incrementing/decrementing a uint\r\n    // use the following functions when interacting with Counters: increment(), decrement(), and current() to get the value\r\n    // see: https://github.com/OpenZeppelin/openzeppelin-solidity/blob/master/contracts/drafts/Counters.sol\r\n    mapping (address => Counters.Counter) private _ownedTokensCount;\r\n\r\n    // Mapping from owner to operator approvals\r\n    mapping (address => mapping (address => bool)) private _operatorApprovals;\r\n\r\n    bytes4 private constant _INTERFACE_ID_ERC721 = 0x80ac58cd;\r\n\r\n    constructor () public {\r\n        // register the supported interfaces to conform to ERC721 via ERC165\r\n        _registerInterface(_INTERFACE_ID_ERC721);\r\n    }\r\n\r\n    function balanceOf(address owner) public view returns (uint256) {        \r\n        // TIP: remember the functions to use for Counters. you can refresh yourself with the link above\r\n        return _ownedTokensCount[owner].current(); // TODO return the token balance of given address\r\n    }\r\n\r\n    function ownerOf(uint256 tokenId) public view returns (address) {\r\n        return _tokenOwner[tokenId]; // TODO return the owner of the given tokenId\r\n    }\r\n\r\n//    @dev Approves another address to transfer the given token ID\r\n    function approve(address to, uint256 tokenId) public {\r\n        require(to != address(0), \"ERC721: recipient must be a valid address\");\r\n        require(to != _tokenOwner[tokenId], \"ERC721: recipient already owns this token\"); // TODO require the given address to not be the owner of the tokenId\r\n        require(msg.sender == _tokenOwner[tokenId] || isApprovedForAll(ownerOf(tokenId), msg.sender), \"ERC721: Not approved to transfer this token\"); // TODO require the msg sender to be the owner of the contract or isApprovedForAll() to be true\r\n        _tokenApprovals[tokenId] = to;  // TODO add 'to' address to token approvals\r\n        emit Approval(_tokenOwner[tokenId], to, tokenId);    // TODO emit Approval Event\r\n    }\r\n\r\n    function getApproved(uint256 tokenId) public view returns (address) {\r\n        require(_tokenApprovals[tokenId] != address(0), \"ERC721: Token approval does not exist\");        \r\n        return _tokenApprovals[tokenId];    // TODO return token approval if it exists\r\n    }\r\n\r\n    /**\r\n     * @dev Sets or unsets the approval of a given operator\r\n     * An operator is allowed to transfer all tokens of the sender on their behalf\r\n     * @param to operator address to set the approval\r\n     * @param approved representing the status of the approval to be set\r\n     */\r\n    function setApprovalForAll(address to, bool approved) public {\r\n        require(to != msg.sender);\r\n        _operatorApprovals[msg.sender][to] = approved;\r\n        emit ApprovalForAll(msg.sender, to, approved);\r\n    }\r\n\r\n    /**\r\n     * @dev Tells whether an operator is approved by a given owner\r\n     * @param owner owner address which you want to query the approval of\r\n     * @param operator operator address which you want to query the approval of\r\n     * @return bool whether the given operator is approved by the given owner\r\n     */\r\n    function isApprovedForAll(address owner, address operator) public view returns (bool) {\r\n        return _operatorApprovals[owner][operator];\r\n    }\r\n\r\n    function transferFrom(address from, address to, uint256 tokenId) public {\r\n        require(_isApprovedOrOwner(msg.sender, tokenId));\r\n\r\n        _transferFrom(from, to, tokenId);\r\n    }\r\n\r\n    function safeTransferFrom(address from, address to, uint256 tokenId) public {\r\n        safeTransferFrom(from, to, tokenId, \"\");\r\n    }\r\n\r\n    function safeTransferFrom(address from, address to, uint256 tokenId, bytes memory _data) public {\r\n        transferFrom(from, to, tokenId);\r\n        require(_checkOnERC721Received(from, to, tokenId, _data));\r\n    }\r\n\r\n    /**\r\n     * @dev Returns whether the specified token exists\r\n     * @param tokenId uint256 ID of the token to query the existence of\r\n     * @return bool whether the token exists\r\n     */\r\n    function _exists(uint256 tokenId) internal view returns (bool) {\r\n        address owner = _tokenOwner[tokenId];\r\n        return owner != address(0);\r\n    }\r\n\r\n    /**\r\n     * @dev Returns whether the given spender can transfer a given token ID\r\n     * @param spender address of the spender to query\r\n     * @param tokenId uint256 ID of the token to be transferred\r\n     * @return bool whether the msg.sender is approved for the given token ID,\r\n     * is an operator of the owner, or is the owner of the token\r\n     */\r\n    function _isApprovedOrOwner(address spender, uint256 tokenId) internal view returns (bool) {\r\n        address owner = ownerOf(tokenId);\r\n        return (spender == owner || getApproved(tokenId) == spender || isApprovedForAll(owner, spender));\r\n    }\r\n\r\n    // @dev Internal function to mint a new token\r\n    // TIP: remember the functions to use for Counters. you can refresh yourself with the link above\r\n    function _mint(address to, uint256 tokenId) internal {\r\n        // TODO revert if given tokenId already exists or given address is invalid\r\n        require(!_exists(tokenId), \"ERC721: Token already exists\");\r\n        require(to != address(0), \"ERC721: recipient must be a valid address\");     \r\n\r\n        // TODO mint tokenId to given address & increase token count of owner\r\n        _tokenOwner[tokenId] = to;\r\n        _ownedTokensCount[to].increment();\r\n        \r\n        emit Transfer(address(0), to, tokenId);    // TODO emit Transfer event\r\n    }\r\n\r\n    // @dev Internal function to transfer ownership of a given token ID to another address.\r\n    // TIP: remember the functions to use for Counters. you can refresh yourself with the link above\r\n    function _transferFrom(address from, address to, uint256 tokenId) internal {\r\n        // TODO: require from address is the owner of the given token\r\n        require(from == ownerOf(tokenId), \"ERC721: from address doesn't own this token\");\r\n\r\n        // TODO: require token is being transfered to valid address\r\n        require(to != address(0), \"ERC721: recipient must be a valid address\");     \r\n\r\n        require(_exists(tokenId), \"ERC721: Token must exist\");        \r\n        require(to != ownerOf(tokenId), \"ERC721: recipient already owns this token\");\r\n\r\n        // TODO: clear approval\r\n        _clearApproval(tokenId);\r\n\r\n        // TODO: update token counts & transfer ownership of the token ID\r\n        _ownedTokensCount[from].decrement();\r\n        _ownedTokensCount[to].increment();\r\n\r\n        _tokenOwner[tokenId] = to;\r\n\r\n        // TODO: emit correct event\r\n        emit Transfer(from, to, tokenId);    // TODO emit Transfer event\r\n    }\r\n\r\n    /**\r\n     * @dev Internal function to invoke `onERC721Received` on a target address\r\n     * The call is not executed if the target address is not a contract\r\n     * @param from address representing the previous owner of the given token ID\r\n     * @param to target address that will receive the tokens\r\n     * @param tokenId uint256 ID of the token to be transferred\r\n     * @param _data bytes optional data to send along with the call\r\n     * @return bool whether the call correctly returned the expected magic value\r\n     */\r\n    function _checkOnERC721Received(address from, address to, uint256 tokenId, bytes memory _data)\r\n        internal returns (bool)\r\n    {\r\n        if (!to.isContract()) {\r\n            return true;\r\n        }\r\n\r\n        bytes4 retval = IERC721Receiver(to).onERC721Received(msg.sender, from, tokenId, _data);\r\n        return (retval == _ERC721_RECEIVED);\r\n    }\r\n\r\n    // @dev Private function to clear current approval of a given token ID\r\n    function _clearApproval(uint256 tokenId) private {\r\n        if (_tokenApprovals[tokenId] != address(0)) {\r\n            _tokenApprovals[tokenId] = address(0);\r\n        }\r\n    }\r\n}\r\n\r\ncontract ERC721Enumerable is ERC165, ERC721 {\r\n    // Mapping from owner to list of owned token IDs\r\n    mapping(address => uint256[]) private _ownedTokens;\r\n\r\n    // Mapping from token ID to index of the owner tokens list\r\n    mapping(uint256 => uint256) private _ownedTokensIndex;\r\n\r\n    // Array with all token ids, used for enumeration\r\n    uint256[] private _allTokens;\r\n\r\n    // Mapping from token id to position in the allTokens array\r\n    mapping(uint256 => uint256) private _allTokensIndex;\r\n\r\n    bytes4 private constant _INTERFACE_ID_ERC721_ENUMERABLE = 0x780e9d63;\r\n    /*\r\n     * 0x780e9d63 ===\r\n     *     bytes4(keccak256('totalSupply()')) ^\r\n     *     bytes4(keccak256('tokenOfOwnerByIndex(address,uint256)')) ^\r\n     *     bytes4(keccak256('tokenByIndex(uint256)'))\r\n     */\r\n\r\n    /**\r\n     * @dev Constructor function\r\n     */\r\n    constructor () public {\r\n        // register the supported interface to conform to ERC721Enumerable via ERC165\r\n        _registerInterface(_INTERFACE_ID_ERC721_ENUMERABLE);\r\n    }\r\n\r\n    /**\r\n     * @dev Gets the token ID at a given index of the tokens list of the requested owner\r\n     * @param owner address owning the tokens list to be accessed\r\n     * @param index uint256 representing the index to be accessed of the requested tokens list\r\n     * @return uint256 token ID at the given index of the tokens list owned by the requested address\r\n     */\r\n    function tokenOfOwnerByIndex(address owner, uint256 index) public view returns (uint256) {\r\n        require(index < balanceOf(owner));\r\n        return _ownedTokens[owner][index];\r\n    }\r\n\r\n    /**\r\n     * @dev Gets the total amount of tokens stored by the contract\r\n     * @return uint256 representing the total amount of tokens\r\n     */\r\n    function totalSupply() public view returns (uint256) {\r\n        return _allTokens.length;\r\n    }\r\n\r\n    /**\r\n     * @dev Gets the token ID at a given index of all the tokens in this contract\r\n     * Reverts if the index is greater or equal to the total number of tokens\r\n     * @param index uint256 representing the index to be accessed of the tokens list\r\n     * @return uint256 token ID at the given index of the tokens list\r\n     */\r\n    function tokenByIndex(uint256 index) public view returns (uint256) {\r\n        require(index < totalSupply());\r\n        return _allTokens[index];\r\n    }\r\n\r\n    /**\r\n     * @dev Internal function to transfer ownership of a given token ID to another address.\r\n     * As opposed to transferFrom, this imposes no restrictions on msg.sender.\r\n     * @param from current owner of the token\r\n     * @param to address to receive the ownership of the given token ID\r\n     * @param tokenId uint256 ID of the token to be transferred\r\n     */\r\n    function _transferFrom(address from, address to, uint256 tokenId) internal {\r\n        super._transferFrom(from, to, tokenId);\r\n\r\n        _removeTokenFromOwnerEnumeration(from, tokenId);\r\n\r\n        _addTokenToOwnerEnumeration(to, tokenId);\r\n    }\r\n\r\n    /**\r\n     * @dev Internal function to mint a new token\r\n     * Reverts if the given token ID already exists\r\n     * @param to address the beneficiary that will own the minted token\r\n     * @param tokenId uint256 ID of the token to be minted\r\n     */\r\n    function _mint(address to, uint256 tokenId) internal {\r\n        super._mint(to, tokenId);\r\n\r\n        _addTokenToOwnerEnumeration(to, tokenId);\r\n\r\n        _addTokenToAllTokensEnumeration(tokenId);\r\n    }\r\n\r\n    /**\r\n     * @dev Gets the list of token IDs of the requested owner\r\n     * @param owner address owning the tokens\r\n     * @return uint256[] List of token IDs owned by the requested address\r\n     */\r\n    function _tokensOfOwner(address owner) internal view returns (uint256[] storage) {\r\n        return _ownedTokens[owner];\r\n    }\r\n\r\n    /**\r\n     * @dev Private function to add a token to this extension's ownership-tracking data structures.\r\n     * @param to address representing the new owner of the given token ID\r\n     * @param tokenId uint256 ID of the token to be added to the tokens list of the given address\r\n     */\r\n    function _addTokenToOwnerEnumeration(address to, uint256 tokenId) private {\r\n        _ownedTokensIndex[tokenId] = _ownedTokens[to].length;\r\n        _ownedTokens[to].push(tokenId);\r\n    }\r\n\r\n    /**\r\n     * @dev Private function to add a token to this extension's token tracking data structures.\r\n     * @param tokenId uint256 ID of the token to be added to the tokens list\r\n     */\r\n    function _addTokenToAllTokensEnumeration(uint256 tokenId) private {\r\n        _allTokensIndex[tokenId] = _allTokens.length;\r\n        _allTokens.push(tokenId);\r\n    }\r\n\r\n    /**\r\n     * @dev Private function to remove a token from this extension's ownership-tracking data structures. Note that\r\n     * while the token is not assigned a new owner, the _ownedTokensIndex mapping is _not_ updated: this allows for\r\n     * gas optimizations e.g. when performing a transfer operation (avoiding double writes).\r\n     * This has O(1) time complexity, but alters the order of the _ownedTokens array.\r\n     * @param from address representing the previous owner of the given token ID\r\n     * @param tokenId uint256 ID of the token to be removed from the tokens list of the given address\r\n     */\r\n    function _removeTokenFromOwnerEnumeration(address from, uint256 tokenId) private {\r\n        // To prevent a gap in from's tokens array, we store the last token in the index of the token to delete, and\r\n        // then delete the last slot (swap and pop).\r\n\r\n        uint256 lastTokenIndex = _ownedTokens[from].length.sub(1);\r\n        uint256 tokenIndex = _ownedTokensIndex[tokenId];\r\n\r\n        // When the token to delete is the last token, the swap operation is unnecessary\r\n        if (tokenIndex != lastTokenIndex) {\r\n            uint256 lastTokenId = _ownedTokens[from][lastTokenIndex];\r\n\r\n            _ownedTokens[from][tokenIndex] = lastTokenId; // Move the last token to the slot of the to-delete token\r\n            _ownedTokensIndex[lastTokenId] = tokenIndex; // Update the moved token's index\r\n        }\r\n\r\n        // This also deletes the contents at the last position of the array\r\n        _ownedTokens[from].length--;\r\n\r\n        // Note that _ownedTokensIndex[tokenId] hasn't been cleared: it still points to the old slot (now occupied by\r\n        // lastTokenId, or just over the end of the array if the token was the last one).\r\n    }\r\n\r\n    /**\r\n     * @dev Private function to remove a token from this extension's token tracking data structures.\r\n     * This has O(1) time complexity, but alters the order of the _allTokens array.\r\n     * @param tokenId uint256 ID of the token to be removed from the tokens list\r\n     */\r\n    function _removeTokenFromAllTokensEnumeration(uint256 tokenId) private {\r\n        // To prevent a gap in the tokens array, we store the last token in the index of the token to delete, and\r\n        // then delete the last slot (swap and pop).\r\n\r\n        uint256 lastTokenIndex = _allTokens.length.sub(1);\r\n        uint256 tokenIndex = _allTokensIndex[tokenId];\r\n\r\n        // When the token to delete is the last token, the swap operation is unnecessary. However, since this occurs so\r\n        // rarely (when the last minted token is burnt) that we still do the swap here to avoid the gas cost of adding\r\n        // an 'if' statement (like in _removeTokenFromOwnerEnumeration)\r\n        uint256 lastTokenId = _allTokens[lastTokenIndex];\r\n\r\n        _allTokens[tokenIndex] = lastTokenId; // Move the last token to the slot of the to-delete token\r\n        _allTokensIndex[lastTokenId] = tokenIndex; // Update the moved token's index\r\n\r\n        // This also deletes the contents at the last position of the array\r\n        _allTokens.length--;\r\n        _allTokensIndex[tokenId] = 0;\r\n    }\r\n}\r\n\r\ncontract ERC721Metadata is ERC721Enumerable, usingOraclize {\r\n    \r\n    // TODO: Create private vars for token _name, _symbol, and _baseTokenURI (string)\r\n    string private _name;\r\n    string private _symbol;\r\n    string private _baseTokenURI;\r\n\r\n    // TODO: create private mapping of tokenId's to token uri's called '_tokenURIs'\r\n    mapping (uint256 => string) private _tokenURIs;\r\n\r\n    bytes4 private constant _INTERFACE_ID_ERC721_METADATA = 0x5b5e139f;\r\n    /*\r\n     * 0x5b5e139f ===\r\n     *     bytes4(keccak256('name()')) ^\r\n     *     bytes4(keccak256('symbol()')) ^\r\n     *     bytes4(keccak256('tokenURI(uint256)'))\r\n     */\r\n\r\n    constructor (string memory name, string memory symbol, string memory baseTokenURI) public {\r\n        // TODO: set instance var values\r\n        _name = name;\r\n        _symbol = symbol;\r\n        _baseTokenURI = baseTokenURI;\r\n\r\n        _registerInterface(_INTERFACE_ID_ERC721_METADATA);\r\n    }\r\n\r\n    // TODO: create external getter functions for name, symbol, and baseTokenURI\r\n    function name() public view returns(string memory) {\r\n        return _name;\r\n    }\r\n    function symbol() public view returns(string memory) {\r\n        return _symbol;\r\n    }\r\n    function baseTokenURI() public view returns(string memory) {\r\n        return _baseTokenURI;\r\n    }\r\n\r\n    function tokenURI(uint256 tokenId) external view returns (string memory) {\r\n        return _tokenURIs[tokenId];\r\n    }\r\n\r\n\r\n    // TODO: Create an internal function to set the tokenURI of a specified tokenId\r\n    // It should be the _baseTokenURI + the tokenId in string form\r\n    // TIP #1: use strConcat() from the imported oraclizeAPI lib to set the complete token URI\r\n    // TIP #2: you can also use uint2str() to convert a uint to a string\r\n        // see https://github.com/oraclize/ethereum-api/blob/master/oraclizeAPI_0.5.sol for strConcat()\r\n    // require the token exists before setting\r\n    function _setTokenURI(uint256 tokenId) internal {\r\n        require(super._exists(tokenId), \"ERC721Metadata: Token must exist\");\r\n        _tokenURIs[tokenId] = usingOraclize.strConcat(_baseTokenURI, usingOraclize.uint2str(tokenId));\r\n    }\r\n\r\n}\r\n\r\n//  TODO's: Create CustomERC721Token contract that inherits from the ERC721Metadata contract. You can name this contract as you please\r\n//  1) Pass in appropriate values for the inherited ERC721Metadata contract\r\n//      - make the base token uri: https://s3-us-west-2.amazonaws.com/udacity-blockchain/capstone/\r\n//  2) create a public mint() that does the following:\r\n//      -can only be executed by the contract owner\r\n//      -takes in a 'to' address, tokenId, and tokenURI as parameters\r\n//      -returns a true boolean upon completion of the function\r\n//      -calls the superclass mint and setTokenURI functions\r\ncontract ERC721Mintable is ERC721Metadata {\r\n    string private _name;\r\n    string private _symbol;\r\n    string private _baseTokenURI;\r\n\r\n    constructor (string memory name, string memory symbol, string memory baseTokenURI) ERC721Metadata(_name, _symbol, _baseTokenURI) public {\r\n        _name = name;\r\n        _symbol = symbol;\r\n        _baseTokenURI = baseTokenURI;\r\n    }\r\n\r\n    function mint(address to, uint256 tokenId) public onlyOwner returns (bool) { \r\n        super._mint(to, tokenId);\r\n        super._setTokenURI(tokenId);\r\n        return true;\r\n    }\r\n}\r\n\r\n\r\n",
  "sourcePath": "D:\\Source\\Udacity\\UdacityCapstone\\eth-contracts\\contracts\\ERC721Mintable.sol",
  "compiler": {
    "name": "solc",
    "version": "0.5.17+commit.d19bba13.Emscripten.clang"
  },
  "schemaVersion": "3.4.3",
  "updatedAt": "2021-10-29T06:04:56.606Z",
  "devdoc": {
    "methods": {
      "constructor": {
        "details": "Constructor function"
      },
      "isApprovedForAll(address,address)": {
        "details": "Tells whether an operator is approved by a given owner",
        "params": {
          "operator": "operator address which you want to query the approval of",
          "owner": "owner address which you want to query the approval of"
        },
        "return": "bool whether the given operator is approved by the given owner"
      },
      "setApprovalForAll(address,bool)": {
        "details": "Sets or unsets the approval of a given operator An operator is allowed to transfer all tokens of the sender on their behalf",
        "params": {
          "approved": "representing the status of the approval to be set",
          "to": "operator address to set the approval"
        }
      },
      "supportsInterface(bytes4)": {
        "details": "implement supportsInterface(bytes4) using a lookup table"
      },
      "tokenByIndex(uint256)": {
        "details": "Gets the token ID at a given index of all the tokens in this contract Reverts if the index is greater or equal to the total number of tokens",
        "params": {
          "index": "uint256 representing the index to be accessed of the tokens list"
        },
        "return": "uint256 token ID at the given index of the tokens list"
      },
      "tokenOfOwnerByIndex(address,uint256)": {
        "details": "Gets the token ID at a given index of the tokens list of the requested owner",
        "params": {
          "index": "uint256 representing the index to be accessed of the requested tokens list",
          "owner": "address owning the tokens list to be accessed"
        },
        "return": "uint256 token ID at the given index of the tokens list owned by the requested address"
      },
      "totalSupply()": {
        "details": "Gets the total amount of tokens stored by the contract",
        "return": "uint256 representing the total amount of tokens"
      }
    }
  },
  "userdoc": {
    "methods": {}
  }
}