{
  "contractName": "SolnSquareVerifier",
  "abi": [
    {
      "inputs": [
        {
          "internalType": "string",
          "name": "name",
          "type": "string"
        },
        {
          "internalType": "string",
          "name": "symbol",
          "type": "string"
        },
        {
          "internalType": "string",
          "name": "baseTokenURI",
          "type": "string"
        }
      ],
      "payable": false,
      "stateMutability": "nonpayable",
      "type": "constructor"
    },
    {
      "anonymous": false,
      "inputs": [
        {
          "indexed": true,
          "internalType": "address",
          "name": "owner",
          "type": "address"
        },
        {
          "indexed": true,
          "internalType": "address",
          "name": "approved",
          "type": "address"
        },
        {
          "indexed": true,
          "internalType": "uint256",
          "name": "tokenId",
          "type": "uint256"
        }
      ],
      "name": "Approval",
      "type": "event"
    },
    {
      "anonymous": false,
      "inputs": [
        {
          "indexed": true,
          "internalType": "address",
          "name": "owner",
          "type": "address"
        },
        {
          "indexed": true,
          "internalType": "address",
          "name": "operator",
          "type": "address"
        },
        {
          "indexed": false,
          "internalType": "bool",
          "name": "approved",
          "type": "bool"
        }
      ],
      "name": "ApprovalForAll",
      "type": "event"
    },
    {
      "anonymous": false,
      "inputs": [
        {
          "indexed": false,
          "internalType": "address",
          "name": "newOwner",
          "type": "address"
        }
      ],
      "name": "OwnershipTransferred",
      "type": "event"
    },
    {
      "anonymous": false,
      "inputs": [
        {
          "indexed": false,
          "internalType": "address",
          "name": "pausedBy",
          "type": "address"
        }
      ],
      "name": "Paused",
      "type": "event"
    },
    {
      "anonymous": false,
      "inputs": [
        {
          "components": [
            {
              "internalType": "address",
              "name": "tokenOwner",
              "type": "address"
            },
            {
              "internalType": "uint256",
              "name": "tokenId",
              "type": "uint256"
            }
          ],
          "indexed": false,
          "internalType": "struct SolnSquareVerifier.Solution",
          "name": "solution",
          "type": "tuple"
        }
      ],
      "name": "SolutionAdded",
      "type": "event"
    },
    {
      "anonymous": false,
      "inputs": [
        {
          "indexed": true,
          "internalType": "address",
          "name": "from",
          "type": "address"
        },
        {
          "indexed": true,
          "internalType": "address",
          "name": "to",
          "type": "address"
        },
        {
          "indexed": true,
          "internalType": "uint256",
          "name": "tokenId",
          "type": "uint256"
        }
      ],
      "name": "Transfer",
      "type": "event"
    },
    {
      "anonymous": false,
      "inputs": [
        {
          "indexed": false,
          "internalType": "address",
          "name": "unPausedBy",
          "type": "address"
        }
      ],
      "name": "Unpaused",
      "type": "event"
    },
    {
      "constant": true,
      "inputs": [],
      "name": "Owner",
      "outputs": [
        {
          "internalType": "address",
          "name": "",
          "type": "address"
        }
      ],
      "payable": false,
      "stateMutability": "view",
      "type": "function"
    },
    {
      "constant": false,
      "inputs": [
        {
          "internalType": "bool",
          "name": "paused",
          "type": "bool"
        }
      ],
      "name": "Pause",
      "outputs": [],
      "payable": false,
      "stateMutability": "nonpayable",
      "type": "function"
    },
    {
      "constant": false,
      "inputs": [
        {
          "internalType": "bytes32",
          "name": "_myid",
          "type": "bytes32"
        },
        {
          "internalType": "string",
          "name": "_result",
          "type": "string"
        }
      ],
      "name": "__callback",
      "outputs": [],
      "payable": false,
      "stateMutability": "nonpayable",
      "type": "function"
    },
    {
      "constant": false,
      "inputs": [
        {
          "internalType": "bytes32",
          "name": "_myid",
          "type": "bytes32"
        },
        {
          "internalType": "string",
          "name": "_result",
          "type": "string"
        },
        {
          "internalType": "bytes",
          "name": "_proof",
          "type": "bytes"
        }
      ],
      "name": "__callback",
      "outputs": [],
      "payable": false,
      "stateMutability": "nonpayable",
      "type": "function"
    },
    {
      "constant": false,
      "inputs": [
        {
          "internalType": "address",
          "name": "to",
          "type": "address"
        },
        {
          "internalType": "uint256",
          "name": "tokenId",
          "type": "uint256"
        }
      ],
      "name": "approve",
      "outputs": [],
      "payable": false,
      "stateMutability": "nonpayable",
      "type": "function"
    },
    {
      "constant": true,
      "inputs": [
        {
          "internalType": "address",
          "name": "owner",
          "type": "address"
        }
      ],
      "name": "balanceOf",
      "outputs": [
        {
          "internalType": "uint256",
          "name": "",
          "type": "uint256"
        }
      ],
      "payable": false,
      "stateMutability": "view",
      "type": "function"
    },
    {
      "constant": true,
      "inputs": [],
      "name": "baseTokenURI",
      "outputs": [
        {
          "internalType": "string",
          "name": "",
          "type": "string"
        }
      ],
      "payable": false,
      "stateMutability": "view",
      "type": "function"
    },
    {
      "constant": true,
      "inputs": [
        {
          "internalType": "uint256",
          "name": "tokenId",
          "type": "uint256"
        }
      ],
      "name": "getApproved",
      "outputs": [
        {
          "internalType": "address",
          "name": "",
          "type": "address"
        }
      ],
      "payable": false,
      "stateMutability": "view",
      "type": "function"
    },
    {
      "constant": true,
      "inputs": [
        {
          "internalType": "address",
          "name": "owner",
          "type": "address"
        },
        {
          "internalType": "address",
          "name": "operator",
          "type": "address"
        }
      ],
      "name": "isApprovedForAll",
      "outputs": [
        {
          "internalType": "bool",
          "name": "",
          "type": "bool"
        }
      ],
      "payable": false,
      "stateMutability": "view",
      "type": "function"
    },
    {
      "constant": false,
      "inputs": [
        {
          "internalType": "address",
          "name": "to",
          "type": "address"
        },
        {
          "internalType": "uint256",
          "name": "tokenId",
          "type": "uint256"
        }
      ],
      "name": "mint",
      "outputs": [
        {
          "internalType": "bool",
          "name": "",
          "type": "bool"
        }
      ],
      "payable": false,
      "stateMutability": "nonpayable",
      "type": "function"
    },
    {
      "constant": true,
      "inputs": [],
      "name": "name",
      "outputs": [
        {
          "internalType": "string",
          "name": "",
          "type": "string"
        }
      ],
      "payable": false,
      "stateMutability": "view",
      "type": "function"
    },
    {
      "constant": true,
      "inputs": [
        {
          "internalType": "uint256",
          "name": "tokenId",
          "type": "uint256"
        }
      ],
      "name": "ownerOf",
      "outputs": [
        {
          "internalType": "address",
          "name": "",
          "type": "address"
        }
      ],
      "payable": false,
      "stateMutability": "view",
      "type": "function"
    },
    {
      "constant": false,
      "inputs": [
        {
          "internalType": "address",
          "name": "from",
          "type": "address"
        },
        {
          "internalType": "address",
          "name": "to",
          "type": "address"
        },
        {
          "internalType": "uint256",
          "name": "tokenId",
          "type": "uint256"
        }
      ],
      "name": "safeTransferFrom",
      "outputs": [],
      "payable": false,
      "stateMutability": "nonpayable",
      "type": "function"
    },
    {
      "constant": false,
      "inputs": [
        {
          "internalType": "address",
          "name": "from",
          "type": "address"
        },
        {
          "internalType": "address",
          "name": "to",
          "type": "address"
        },
        {
          "internalType": "uint256",
          "name": "tokenId",
          "type": "uint256"
        },
        {
          "internalType": "bytes",
          "name": "_data",
          "type": "bytes"
        }
      ],
      "name": "safeTransferFrom",
      "outputs": [],
      "payable": false,
      "stateMutability": "nonpayable",
      "type": "function"
    },
    {
      "constant": false,
      "inputs": [
        {
          "internalType": "address",
          "name": "to",
          "type": "address"
        },
        {
          "internalType": "bool",
          "name": "approved",
          "type": "bool"
        }
      ],
      "name": "setApprovalForAll",
      "outputs": [],
      "payable": false,
      "stateMutability": "nonpayable",
      "type": "function"
    },
    {
      "constant": true,
      "inputs": [],
      "name": "solutionCount",
      "outputs": [
        {
          "internalType": "uint256",
          "name": "",
          "type": "uint256"
        }
      ],
      "payable": false,
      "stateMutability": "view",
      "type": "function"
    },
    {
      "constant": true,
      "inputs": [
        {
          "internalType": "bytes4",
          "name": "interfaceId",
          "type": "bytes4"
        }
      ],
      "name": "supportsInterface",
      "outputs": [
        {
          "internalType": "bool",
          "name": "",
          "type": "bool"
        }
      ],
      "payable": false,
      "stateMutability": "view",
      "type": "function"
    },
    {
      "constant": true,
      "inputs": [],
      "name": "symbol",
      "outputs": [
        {
          "internalType": "string",
          "name": "",
          "type": "string"
        }
      ],
      "payable": false,
      "stateMutability": "view",
      "type": "function"
    },
    {
      "constant": true,
      "inputs": [
        {
          "internalType": "uint256",
          "name": "index",
          "type": "uint256"
        }
      ],
      "name": "tokenByIndex",
      "outputs": [
        {
          "internalType": "uint256",
          "name": "",
          "type": "uint256"
        }
      ],
      "payable": false,
      "stateMutability": "view",
      "type": "function"
    },
    {
      "constant": true,
      "inputs": [
        {
          "internalType": "address",
          "name": "owner",
          "type": "address"
        },
        {
          "internalType": "uint256",
          "name": "index",
          "type": "uint256"
        }
      ],
      "name": "tokenOfOwnerByIndex",
      "outputs": [
        {
          "internalType": "uint256",
          "name": "",
          "type": "uint256"
        }
      ],
      "payable": false,
      "stateMutability": "view",
      "type": "function"
    },
    {
      "constant": true,
      "inputs": [
        {
          "internalType": "uint256",
          "name": "tokenId",
          "type": "uint256"
        }
      ],
      "name": "tokenURI",
      "outputs": [
        {
          "internalType": "string",
          "name": "",
          "type": "string"
        }
      ],
      "payable": false,
      "stateMutability": "view",
      "type": "function"
    },
    {
      "constant": true,
      "inputs": [],
      "name": "totalSupply",
      "outputs": [
        {
          "internalType": "uint256",
          "name": "",
          "type": "uint256"
        }
      ],
      "payable": false,
      "stateMutability": "view",
      "type": "function"
    },
    {
      "constant": false,
      "inputs": [
        {
          "internalType": "address",
          "name": "from",
          "type": "address"
        },
        {
          "internalType": "address",
          "name": "to",
          "type": "address"
        },
        {
          "internalType": "uint256",
          "name": "tokenId",
          "type": "uint256"
        }
      ],
      "name": "transferFrom",
      "outputs": [],
      "payable": false,
      "stateMutability": "nonpayable",
      "type": "function"
    },
    {
      "constant": false,
      "inputs": [
        {
          "internalType": "address",
          "name": "newOwner",
          "type": "address"
        }
      ],
      "name": "transferOwnership",
      "outputs": [],
      "payable": false,
      "stateMutability": "nonpayable",
      "type": "function"
    },
    {
      "constant": true,
      "inputs": [
        {
          "internalType": "uint256[2]",
          "name": "a",
          "type": "uint256[2]"
        },
        {
          "internalType": "uint256[2][2]",
          "name": "b",
          "type": "uint256[2][2]"
        },
        {
          "internalType": "uint256[2]",
          "name": "c",
          "type": "uint256[2]"
        },
        {
          "internalType": "uint256[2]",
          "name": "input",
          "type": "uint256[2]"
        }
      ],
      "name": "verifyTx",
      "outputs": [
        {
          "internalType": "bool",
          "name": "r",
          "type": "bool"
        }
      ],
      "payable": false,
      "stateMutability": "view",
      "type": "function"
    },
    {
      "constant": false,
      "inputs": [
        {
          "internalType": "address",
          "name": "tokenAddress",
          "type": "address"
        },
        {
          "internalType": "uint256",
          "name": "tokenId",
          "type": "uint256"
        },
        {
          "internalType": "uint256[2]",
          "name": "a",
          "type": "uint256[2]"
        },
        {
          "internalType": "uint256[2][2]",
          "name": "b",
          "type": "uint256[2][2]"
        },
        {
          "internalType": "uint256[2]",
          "name": "c",
          "type": "uint256[2]"
        },
        {
          "internalType": "uint256[2]",
          "name": "input",
          "type": "uint256[2]"
        }
      ],
      "name": "AddSolution",
      "outputs": [],
      "payable": false,
      "stateMutability": "nonpayable",
      "type": "function"
    },
    {
      "constant": false,
      "inputs": [
        {
          "internalType": "address",
          "name": "tokenAddress",
          "type": "address"
        },
        {
          "internalType": "uint256",
          "name": "tokenId",
          "type": "uint256"
        },
        {
          "internalType": "uint256[2]",
          "name": "a",
          "type": "uint256[2]"
        },
        {
          "internalType": "uint256[2][2]",
          "name": "b",
          "type": "uint256[2][2]"
        },
        {
          "internalType": "uint256[2]",
          "name": "c",
          "type": "uint256[2]"
        },
        {
          "internalType": "uint256[2]",
          "name": "input",
          "type": "uint256[2]"
        }
      ],
      "name": "mintNewNFT",
      "outputs": [],
      "payable": false,
      "stateMutability": "nonpayable",
      "type": "function"
    }
  ],
  "bytecode": "0x60806040523480156200001157600080fd5b50604051620035f0380380620035f083398101604081905262000034916200044f565b60138054604080516020601f60026000196101006001881615020190951694909404938401819004810282018101909252828152869386938693830182828015620000c35780601f106200009757610100808354040283529160200191620000c3565b820191906000526020600020905b815481529060010190602001808311620000a557829003601f168201915b505060148054604080516020601f6002600019610100600188161502019095169490940493840181900481028201810190925282815295509193509150830182828015620001555780601f10620001295761010080835404028352916020019162000155565b820191906000526020600020905b8154815290600101906020018083116200013757829003601f168201915b505060158054604080516020601f6002600019610100600188161502019095169490940493840181900481028201810190925282815295509193509150830182828015620001e75780601f10620001bb57610100808354040283529160200191620001e7565b820191906000526020600020905b815481529060010190602001808311620001c957829003601f168201915b50506000805460ff60a01b196001600160a01b03199091163317169055506200022491506301ffc9a760e01b90506001600160e01b036200030e16565b6200023f6380ac58cd60e01b6001600160e01b036200030e16565b6200025a63780e9d6360e01b6001600160e01b036200030e16565b82516200026f90600f9060208601906200034e565b508151620002859060109060208501906200034e565b5080516200029b9060119060208401906200034e565b50620002b7635b5e139f60e01b6001600160e01b036200030e16565b50508351620002cf915060139060208601906200034e565b508151620002e59060149060208501906200034e565b508051620002fb9060159060208401906200034e565b50506000601655506200056c9350505050565b6001600160e01b031980821614156200032657600080fd5b6001600160e01b0319166000908152600160208190526040909120805460ff19169091179055565b828054600181600116156101000203166002900490600052602060002090601f016020900481019282601f106200039157805160ff1916838001178555620003c1565b82800160010185558215620003c1579182015b82811115620003c1578251825591602001919060010190620003a4565b50620003cf929150620003d3565b5090565b620003f091905b80821115620003cf5760008155600101620003da565b90565b600082601f8301126200040557600080fd5b81516200041c620004168262000511565b620004ea565b915080825260208301602083018583830111156200043957600080fd5b6200044683828462000539565b50505092915050565b6000806000606084860312156200046557600080fd5b83516001600160401b038111156200047c57600080fd5b6200048a86828701620003f3565b93505060208401516001600160401b03811115620004a757600080fd5b620004b586828701620003f3565b92505060408401516001600160401b03811115620004d257600080fd5b620004e086828701620003f3565b9150509250925092565b6040518181016001600160401b03811182821017156200050957600080fd5b604052919050565b60006001600160401b038211156200052857600080fd5b506020601f91909101601f19160190565b60005b83811015620005565781810151838201526020016200053c565b8381111562000566576000848401525b50505050565b613074806200057c6000396000f3fe608060405234801561001057600080fd5b50600436106101b95760003560e01c80636352211e116100f9578063a2677c2411610097578063c87b56dd11610071578063c87b56dd1461037b578063d547cfb71461038e578063e985e9c514610396578063f2fde38b146103a9576101b9565b8063a2677c241461034d578063b4a99a4e14610360578063b88d4fde14610368576101b9565b806370a08231116100d357806370a082311461030c5780639422424b1461031f57806395d89b4114610332578063a22cb4651461033a576101b9565b80636352211e146102de5780636aa69d4e146102f15780636b3e219b14610304576101b9565b806327dc297e1161016657806340c10f191161014057806340c10f191461029257806342842e0e146102a55780634f6ccce7146102b8578063621e9ec0146102cb576101b9565b806327dc297e146102595780632f745c591461026c57806338bbfa501461027f576101b9565b8063095ea7b311610197578063095ea7b31461021c57806318160ddd1461023157806323b872dd14610246576101b9565b806301ffc9a7146101be57806306fdde03146101e7578063081812fc146101fc575b600080fd5b6101d16101cc36600461292b565b6103bc565b6040516101de9190612df9565b60405180910390f35b6101ef6103f7565b6040516101de9190612e07565b61020f61020a366004612967565b61048e565b6040516101de9190612d99565b61022f61022a366004612741565b6104e7565b005b6102396105fc565b6040516101de9190612ee6565b61022f61025436600461264b565b610602565b61022f610267366004612870565b610625565b61023961027a366004612741565b610645565b61022f61028d3660046128b8565b610620565b6101d16102a0366004612741565b610693565b61022f6102b336600461264b565b6106e0565b6102396102c6366004612967565b6106fb565b6101d16102d93660046127fb565b61072f565b61020f6102ec366004612967565b610830565b61022f6102ff366004612771565b61084b565b6102396108a6565b61023961031a3660046125f3565b6108ac565b61022f61032d366004612852565b6108cd565b6101ef6109c1565b61022f610348366004612711565b610a22565b61022f61035b366004612771565b610aa7565b61020f610c09565b61022f610376366004612698565b610c18565b6101ef610389366004612967565b610c3e565b6101ef610cdf565b6101d16103a4366004612611565b610d40565b61022f6103b73660046125f3565b610d6e565b7fffffffff00000000000000000000000000000000000000000000000000000000811660009081526001602052604090205460ff165b919050565b600f8054604080516020601f60026000196101006001881615020190951694909404938401819004810282018101909252828152606093909290918301828280156104835780601f1061045857610100808354040283529160200191610483565b820191906000526020600020905b81548152906001019060200180831161046657829003601f168201915b505050505090505b90565b6000818152600360205260408120546001600160a01b03166104cb5760405162461bcd60e51b81526004016104c290612e38565b60405180910390fd5b506000908152600360205260409020546001600160a01b031690565b6001600160a01b03821661050d5760405162461bcd60e51b81526004016104c290612e78565b6000818152600260205260409020546001600160a01b03838116911614156105475760405162461bcd60e51b81526004016104c290612e58565b6000818152600260205260409020546001600160a01b0316331480610579575061057961057382610830565b33610d40565b6105955760405162461bcd60e51b81526004016104c290612e68565b600081815260036020908152604080832080546001600160a01b0319166001600160a01b038781169182179092556002909352818420549151859492909116917f8c5be1e5ebec7d5bd14f71427d1e84f3dd0314c0f7b2291e5b200ac8c7c3b92591a45050565b60085490565b61060c3382610e0e565b61061557600080fd5b610620838383610e65565b505050565b6040805160008152602081019091526106419083908390610620565b5050565b6000610650836108ac565b821061065b57600080fd5b6001600160a01b038316600090815260066020526040902080548390811061067f57fe5b906000526020600020015490505b92915050565b60003361069e610c09565b6001600160a01b0316146106c45760405162461bcd60e51b81526004016104c290612e98565b6106ce8383610e84565b6106d782610ea1565b50600192915050565b61062083838360405180602001604052806000815250610c18565b60006107056105fc565b821061071057600080fd5b6008828154811061071d57fe5b90600052602060002001549050919050565b600061073961223b565b604080518082018252875181526020808901518183015290835281516080810183528751518184019081528851830151606080840191909152908252835180850185528984018051518252518401518185015282840152848301919091528251808401845287518152878301518184015284840152825160028082528183018552919390928301908038833901905050905060005b6002811015610807578481600281106107e357fe5b60200201518282815181106107f457fe5b60209081029190910101526001016107ce565b506108128183610f89565b61082157600192505050610828565b6000925050505b949350505050565b6000908152600260205260409020546001600160a01b031690565b610859868686868686610aa7565b6000858152601860205260409020546017805461089d926000190190811061087d57fe5b60009182526020909120600290910201546001600160a01b031686610693565b50505050505050565b60165481565b6001600160a01b038116600090815260046020526040812061068d906110e8565b336108d6610c09565b6001600160a01b0316146108fc5760405162461bcd60e51b81526004016104c290612e98565b600080548215801574010000000000000000000000000000000000000000027fffffffffffffffffffffff00ffffffffffffffffffffffffffffffffffffffff90921691909117909155610986577f62e78cea01bee320cd4e420270b5ea74000d11b0c9f74754ebdbfc544b05a258336040516109799190612da7565b60405180910390a16109be565b7f5db9ee0a495bf2e6ff9c91a7834c1ba4fdd244a5e8aa4e537bd38aeae4b073aa336040516109b59190612da7565b60405180910390a15b50565b60108054604080516020601f60026000196101006001881615020190951694909404938401819004810282018101909252828152606093909290918301828280156104835780601f1061045857610100808354040283529160200191610483565b6001600160a01b038216331415610a3857600080fd5b3360008181526005602090815260408083206001600160a01b038716808552925291829020805460ff191685151517905590519091907f17307eab39ab6107e8899845ad3d59bd9653f200f220920489ca2b5937696c3190610a9b908590612df9565b60405180910390a35050565b6001600160a01b038616610acd5760405162461bcd60e51b81526004016104c290612eb8565b60008581526018602052604090205415610ae657610c01565b6000610af48585858561072f565b905080610b135760405162461bcd60e51b81526004016104c290612e18565b610b1b61226d565b506040805180820182526001600160a01b03898116825260208083018a81526017805460018082018355600083815287517fc624b66cc0138b8fabc209247f72d758e1cf3343756d543badbf24212bed8c15600290940293840180546001600160a01b031916919098161790965592517fc624b66cc0138b8fabc209247f72d758e1cf3343756d543badbf24212bed8c1690910155548b84526018909252918490205560168054909101905590517f8a66ed36c354d00b16239f8cdf5a93f70f3b4e9fd783be0ac43402087ea0d23090610bf6908390612ed8565b60405180910390a150505b505050505050565b6000546001600160a01b031690565b610c23848484610602565b610c2f848484846110ec565b610c3857600080fd5b50505050565b60008181526012602090815260409182902080548351601f6002600019610100600186161502019093169290920491820184900484028101840190945280845260609392830182828015610cd35780601f10610ca857610100808354040283529160200191610cd3565b820191906000526020600020905b815481529060010190602001808311610cb657829003601f168201915b50505050509050919050565b60118054604080516020601f60026000196101006001881615020190951694909404938401819004810282018101909252828152606093909290918301828280156104835780601f1061045857610100808354040283529160200191610483565b6001600160a01b03918216600090815260056020908152604080832093909416825291909152205460ff1690565b33610d77610c09565b6001600160a01b031614610d9d5760405162461bcd60e51b81526004016104c290612e98565b6001600160a01b038116610dc35760405162461bcd60e51b81526004016104c290612e48565b600080546001600160a01b0319166001600160a01b0383161790556040517f04dba622d284ed0014ee4b9a6a68386be1a4c08a4913ae272de89199cc686163906109b5908390612d99565b600080610e1a83610830565b9050806001600160a01b0316846001600160a01b03161480610e555750836001600160a01b0316610e4a8461048e565b6001600160a01b0316145b8061082857506108288185610d40565b610e708383836111c9565b610e7a838261132e565b6106208282611423565b610e8e8282611461565b610e988282611423565b61064181611528565b610eaa8161156c565b610ec65760405162461bcd60e51b81526004016104c290612ec8565b60118054604080516020601f60026000196101006001881615020190951694909404938401819004810282018101909252828152610f669390929091830182828015610f535780601f10610f2857610100808354040283529160200191610f53565b820191906000526020600020905b815481529060010190602001808311610f3657829003601f168201915b5050505050610f6183611589565b611666565b600082815260126020908152604090912082516106419391929190910190612284565b60007f30644e72e131a029b85045b68181585d2833e84879b9709143e1f593f0000001610fb4612302565b610fbc6116a9565b9050806080015151855160010114610fd357600080fd5b610fdb612349565b50604080518082019091526000808252602082018190525b8651811015611065578387828151811061100957fe5b60200260200101511061101b57600080fd5b61105b826110568560800151846001018151811061103557fe5b60200260200101518a858151811061104957fe5b6020026020010151611a9d565b611af5565b9150600101610ff3565b5061108881836080015160008151811061107b57fe5b6020026020010151611af5565b90506110cc856000015186602001516110a084611b43565b85604001516110b28a60400151611b43565b606088015188516110c290611b43565b8960200151611bcd565b6110dc576001935050505061068d565b50600095945050505050565b5490565b6000611100846001600160a01b0316611d1d565b61110c57506001610828565b604051630a85bd0160e11b81526000906001600160a01b0386169063150b7a02906111419033908a9089908990600401612db5565b602060405180830381600087803b15801561115b57600080fd5b505af115801561116f573d6000803e3d6000fd5b505050506040513d601f19601f820116820180604052506111939190810190612949565b7fffffffff0000000000000000000000000000000000000000000000000000000016630a85bd0160e11b14915050949350505050565b6111d281610830565b6001600160a01b0316836001600160a01b0316146112025760405162461bcd60e51b81526004016104c290612ea8565b6001600160a01b0382166112285760405162461bcd60e51b81526004016104c290612e78565b6112318161156c565b61124d5760405162461bcd60e51b81526004016104c290612e28565b61125681610830565b6001600160a01b0316826001600160a01b031614156112875760405162461bcd60e51b81526004016104c290612e58565b61129081611d56565b6001600160a01b03831660009081526004602052604090206112b190611d91565b6001600160a01b03821660009081526004602052604090206112d290611da8565b60008181526002602052604080822080546001600160a01b0319166001600160a01b0386811691821790925591518493918716917fddf252ad1be2c89b69c2b068fc378daa952ba7f163c4a11628f55a4df523b3ef91a4505050565b6001600160a01b03821660009081526006602052604081205461135890600163ffffffff611db116565b6000838152600760205260409020549091508082146113f3576001600160a01b038416600090815260066020526040812080548490811061139557fe5b906000526020600020015490508060066000876001600160a01b03166001600160a01b0316815260200190815260200160002083815481106113d357fe5b600091825260208083209091019290925591825260079052604090208190555b6001600160a01b038416600090815260066020526040902080549061141c906000198301612363565b5050505050565b6001600160a01b0390911660009081526006602081815260408084208054868652600784529185208290559282526001810183559183529091200155565b61146a8161156c565b156114875760405162461bcd60e51b81526004016104c290612e88565b6001600160a01b0382166114ad5760405162461bcd60e51b81526004016104c290612e78565b600081815260026020908152604080832080546001600160a01b0319166001600160a01b0387169081179091558352600490915290206114ec90611da8565b60405181906001600160a01b038416906000907fddf252ad1be2c89b69c2b068fc378daa952ba7f163c4a11628f55a4df523b3ef908290a45050565b600880546000838152600960205260408120829055600182018355919091527ff3f7a9fe364faab93b216da50a3214154f22a0a2b415b23a84c8169e8b636ee30155565b6000908152600260205260409020546001600160a01b0316151590565b6060816115ca575060408051808201909152600181527f300000000000000000000000000000000000000000000000000000000000000060208201526103f2565b8160005b81156115e257600101600a820491506115ce565b6060816040519080825280601f01601f19166020018201604052801561160f576020820181803883390190505b50905060001982015b851561165d57600a860660300160f81b8282806001900393508151811061163b57fe5b60200101906001600160f81b031916908160001a905350600a86049550611618565b50949350505050565b60606116a28383604051806020016040528060008152506040518060200160405280600081525060405180602001604052806000815250611df3565b9392505050565b6116b1612302565b6040805180820182527f2de83aabf420d83f45b7343cf01ebae959229f0c98afa88a09fe09b47f84a5fe81527f0895257c7522cde66dae0d0de24161213dbf825017e41440abc7ce34b563c0926020808301919091529083528151608080820184527f22ed804153295a77ef57f54509f544af8882b9ce23b959d78fd5949de2b0ce128285019081527f08924ebd0321a1060de6379d4dd95b42c5784ec9b1e11368a4018b61aa3b8eea606080850191909152908352845180860186527f15584bad06bba2dd92c08cbda2d3e68a5d59b42250cddb5a236fa35ced000e8a81527f2634e3be4653765404d4a9f1556ed9f14b4308aeb43c971990f4ed40dcc629b7818601528385015285840192909252835180820185527f296a368b304bee4ab80d0ef3df64435ece231ccd3d2f6f7387264322157c73ff8186019081527f01a34f2ee4d6c2b3dec77fa85975c02134c43a05d0181bd7e7981ae4128787c4828501528152845180860186527e42749db82585fe9c51fe189ad31ea0671eabb36bc5ec6781eb66faf5ce0de381527f2e99a54893e2a0e0a1e45f2be4da157f6164fdf125bf832e9afe97916d3d9517818601528185015285850152835180820185527f29160272506a725756ef4cdce45e69db63af11575ff6b8cbb2071680c8c138968186019081527f0561473df9d01a9f552a96447bb5b0132d8ef8da6c7ace0c50d32797cee869c2828501528152845180860186527f17acdcf67d2946aa2649ea08f3d35bee2bbf75a9269993ee395090d9b1879f6081527f189bdd05a4a3b62785a0b74d855be78b53ed4e2226f5012bbf61ceae8a858293818601528185015291850191909152825160038082529181019093529082015b611934612349565b81526020019060019003908161192c57505060808201908152604080518082019091527f0cd3505681461bdb11125bab5292afee206dc5e9d1a93073185cfb83c5c34a3d81527f1b12c775766c9576fb585d73307d48b08150f68ae36972838a1f00d53428fd1d6020820152905180516000906119ad57fe5b602002602001018190525060405180604001604052807f1ce92923d9edd4468d7ccdf43633bc2d34da50b758d91b94d74efa006bb5f02481526020017f1dfc77aeec35bd0be1435b973f0515f8b5040bd81488f6211a2ff32c290a54c98152508160800151600181518110611a1e57fe5b602002602001018190525060405180604001604052807f05305e7f667bf331569098a374f8b616be372be249b5e53e4b6876104bf1ccb681526020017f2fe5bbd14098a05c6145a55caf817789cd6b98b427a16b8068ae92b15b18135c8152508160800151600281518110611a8f57fe5b602002602001018190525090565b611aa5612349565b611aad612387565b835181526020808501519082015260408101839052600060608360808460076107d05a03fa9050808015611ae057611ae2565bfe5b5080611aed57600080fd5b505092915050565b611afd612349565b611b056123a5565b8351815260208085015181830152835160408301528301516060808301919091526000908360c08460066107d05a03fa9050808015611ae057611ae2565b611b4b612349565b81517f30644e72e131a029b85045b68181585d97816a916871ca8d3c208c16d87cfd4790158015611b7e57506020830151155b15611b9e57505060408051808201909152600080825260208201526103f2565b60405180604001604052808460000151815260200182856020015181611bc057fe5b0690920390915292915050565b60408051600480825260a0820190925260009160609190816020015b611bf1612349565b815260200190600190039081611be957505060408051600480825260a0820190925291925060609190602082015b611c276123c3565b815260200190600190039081611c1f5790505090508a82600081518110611c4a57fe5b60200260200101819052508882600181518110611c6357fe5b60200260200101819052508682600281518110611c7c57fe5b60200260200101819052508482600381518110611c9557fe5b60200260200101819052508981600081518110611cae57fe5b60200260200101819052508781600181518110611cc757fe5b60200260200101819052508581600281518110611ce057fe5b60200260200101819052508381600381518110611cf957fe5b6020026020010181905250611d0e8282612007565b9b9a5050505050505050505050565b6000813f7fc5d2460186f7233c927e7db2dcc703c0e500b653ca82273b7bfad8045d85a470818114801590610828575050151592915050565b6000818152600360205260409020546001600160a01b0316156109be57600090815260036020526040902080546001600160a01b0319169055565b8054611da490600163ffffffff611db116565b9055565b80546001019055565b60006116a283836040518060400160405280601e81526020017f536166654d6174683a207375627472616374696f6e206f766572666c6f77000081525061220f565b6060808690506060869050606086905060608690506060869050606081518351855187518951010101016040519080825280601f01601f191660200182016040528015611e47576020820181803883390190505b509050806000805b8851811015611ea057888181518110611e6457fe5b602001015160f81c60f81b838380600101945081518110611e8157fe5b60200101906001600160f81b031916908160001a905350600101611e4f565b5060005b8751811015611ef557878181518110611eb957fe5b602001015160f81c60f81b838380600101945081518110611ed657fe5b60200101906001600160f81b031916908160001a905350600101611ea4565b5060005b8651811015611f4a57868181518110611f0e57fe5b602001015160f81c60f81b838380600101945081518110611f2b57fe5b60200101906001600160f81b031916908160001a905350600101611ef9565b5060005b8551811015611f9f57858181518110611f6357fe5b602001015160f81c60f81b838380600101945081518110611f8057fe5b60200101906001600160f81b031916908160001a905350600101611f4e565b5060005b8451811015611ff457848181518110611fb857fe5b602001015160f81c60f81b838380600101945081518110611fd557fe5b60200101906001600160f81b031916908160001a905350600101611fa3565b50909d9c50505050505050505050505050565b6000815183511461201757600080fd5b8251604080516006830280825260c08402820160200190925260609082801561204a578160200160208202803883390190505b50905060005b838110156121cf5786818151811061206457fe5b60200260200101516000015182826006026000018151811061208257fe5b60200260200101818152505086818151811061209a57fe5b6020026020010151602001518282600602600101815181106120b857fe5b6020026020010181815250508581815181106120d057fe5b602090810291909101015151600160200201518282600602600201815181106120f557fe5b60200260200101818152505085818151811061210d57fe5b60209081029190910101515151825183906003600685020190811061212e57fe5b60200260200101818152505085818151811061214657fe5b60200260200101516020015160016002811061215e57fe5b602002015182826006026004018151811061217557fe5b60200260200101818152505085818151811061218d57fe5b6020026020010151602001516000600281106121a557fe5b60200201518282600602600501815181106121bc57fe5b6020908102919091010152600101612050565b506121d86123e3565b6000602082602086026020860160086107d05a03fa9050808015611ae057508061220157600080fd5b505115159695505050505050565b600081848411156122335760405162461bcd60e51b81526004016104c29190612e07565b505050900390565b604051806060016040528061224e612349565b815260200161225b6123c3565b8152602001612268612349565b905290565b604080518082019091526000808252602082015290565b828054600181600116156101000203166002900490600052602060002090601f016020900481019282601f106122c557805160ff19168380011785556122f2565b828001600101855582156122f2579182015b828111156122f25782518255916020019190600101906122d7565b506122fe929150612401565b5090565b6040518060a00160405280612315612349565b81526020016123226123c3565b815260200161232f6123c3565b815260200161233c6123c3565b8152602001606081525090565b604051806040016040528060008152602001600081525090565b81548183558181111561062057600083815260209020610620918101908301612401565b60405180606001604052806003906020820280388339509192915050565b60405180608001604052806004906020820280388339509192915050565b60405180604001604052806123d661241b565b815260200161226861241b565b60405180602001604052806001906020820280388339509192915050565b61048b91905b808211156122fe5760008155600101612407565b60405180604001604052806002906020820280388339509192915050565b803561068d81613002565b600082601f83011261245557600080fd5b600261246861246382612f1b565b612ef4565b9150818385604084028201111561247e57600080fd5b60005b838110156124ac578161249488826124b6565b84525060209092019160409190910190600101612481565b5050505092915050565b600082601f8301126124c757600080fd5b60026124d561246382612f1b565b915081838560208402820111156124eb57600080fd5b60005b838110156124ac57816125018882612583565b84525060209283019291909101906001016124ee565b600082601f83011261252857600080fd5b600261253661246382612f1b565b9150818385602084028201111561254c57600080fd5b60005b838110156124ac57816125628882612583565b845250602092830192919091019060010161254f565b803561068d81613016565b803561068d8161301f565b803561068d81613028565b805161068d81613028565b600082601f8301126125b557600080fd5b81356125c361246382612f39565b915080825260208301602083018583830111156125df57600080fd5b6125ea838284612fc0565b50505092915050565b60006020828403121561260557600080fd5b60006108288484612439565b6000806040838503121561262457600080fd5b60006126308585612439565b925050602061264185828601612439565b9150509250929050565b60008060006060848603121561266057600080fd5b600061266c8686612439565b935050602061267d86828701612439565b925050604061268e86828701612583565b9150509250925092565b600080600080608085870312156126ae57600080fd5b60006126ba8787612439565b94505060206126cb87828801612439565b93505060406126dc87828801612583565b925050606085013567ffffffffffffffff8111156126f957600080fd5b612705878288016125a4565b91505092959194509250565b6000806040838503121561272457600080fd5b60006127308585612439565b925050602061264185828601612578565b6000806040838503121561275457600080fd5b60006127608585612439565b925050602061264185828601612583565b600080600080600080610180878903121561278b57600080fd5b60006127978989612439565b96505060206127a889828a01612583565b95505060406127b989828a01612517565b94505060806127ca89828a01612444565b9350506101006127dc89828a01612517565b9250506101406127ee89828a01612517565b9150509295509295509295565b600080600080610140858703121561281257600080fd5b600061281e8787612517565b945050604061282f87828801612444565b93505060c061284087828801612517565b92505061010061270587828801612517565b60006020828403121561286457600080fd5b60006108288484612578565b6000806040838503121561288357600080fd5b600061288f8585612583565b925050602083013567ffffffffffffffff8111156128ac57600080fd5b612641858286016125a4565b6000806000606084860312156128cd57600080fd5b60006128d98686612583565b935050602084013567ffffffffffffffff8111156128f657600080fd5b612902868287016125a4565b925050604084013567ffffffffffffffff81111561291f57600080fd5b61268e868287016125a4565b60006020828403121561293d57600080fd5b6000610828848461258e565b60006020828403121561295b57600080fd5b60006108288484612599565b60006020828403121561297957600080fd5b60006108288484612583565b61298e81612faf565b82525050565b61298e81612f6e565b61298e81612f79565b60006129b182612f61565b6129bb8185612f65565b93506129cb818560208601612fcc565b6129d481612ff8565b9093019392505050565b60006129eb602183612f65565b7f536f6c6e53717561726556657269666965723a20496e76616c69642050726f6f81527f6600000000000000000000000000000000000000000000000000000000000000602082015260400192915050565b6000612a4a601883612f65565b7f4552433732313a20546f6b656e206d7573742065786973740000000000000000815260200192915050565b6000612a83602583612f65565b7f4552433732313a20546f6b656e20617070726f76616c20646f6573206e6f742081527f6578697374000000000000000000000000000000000000000000000000000000602082015260400192915050565b6000612ae2602183612f65565b7f4f776e61626c653a20496e76616c6964207472616e736665722061646472657381527f7300000000000000000000000000000000000000000000000000000000000000602082015260400192915050565b6000612b41602983612f65565b7f4552433732313a20726563697069656e7420616c7265616479206f776e73207481527f68697320746f6b656e0000000000000000000000000000000000000000000000602082015260400192915050565b6000612ba0602b83612f65565b7f4552433732313a204e6f7420617070726f76656420746f207472616e7366657281526a103a3434b9903a37b5b2b760a91b602082015260400192915050565b6000612bed602983612f65565b7f4552433732313a20726563697069656e74206d75737420626520612076616c6981527f6420616464726573730000000000000000000000000000000000000000000000602082015260400192915050565b6000612c4c601c83612f65565b7f4552433732313a20546f6b656e20616c72656164792065786973747300000000815260200192915050565b6000612c85602083612f65565b7f4f776e61626c653a2063616c6c6572206973206e6f7420746865206f776e6572815260200192915050565b6000612cbe602b83612f65565b7f4552433732313a2066726f6d206164647265737320646f65736e2774206f776e81526a103a3434b9903a37b5b2b760a91b602082015260400192915050565b6000612d0b600f83612f65565b7f496e76616c696420416464726573730000000000000000000000000000000000815260200192915050565b6000612d44602083612f65565b7f4552433732314d657461646174613a20546f6b656e206d757374206578697374815260200192915050565b80516040830190612d818482612994565b506020820151610c3860208501825b61298e8161048b565b6020810161068d8284612994565b6020810161068d8284612985565b60808101612dc38287612985565b612dd06020830186612994565b612ddd6040830185612d90565b8181036060830152612def81846129a6565b9695505050505050565b6020810161068d828461299d565b602080825281016116a281846129a6565b6020808252810161068d816129de565b6020808252810161068d81612a3d565b6020808252810161068d81612a76565b6020808252810161068d81612ad5565b6020808252810161068d81612b34565b6020808252810161068d81612b93565b6020808252810161068d81612be0565b6020808252810161068d81612c3f565b6020808252810161068d81612c78565b6020808252810161068d81612cb1565b6020808252810161068d81612cfe565b6020808252810161068d81612d37565b6040810161068d8284612d70565b6020810161068d8284612d90565b60405181810167ffffffffffffffff81118282101715612f1357600080fd5b604052919050565b600067ffffffffffffffff821115612f3257600080fd5b5060200290565b600067ffffffffffffffff821115612f5057600080fd5b506020601f91909101601f19160190565b5190565b90815260200190565b600061068d82612fa3565b151590565b7fffffffff000000000000000000000000000000000000000000000000000000001690565b6001600160a01b031690565b600061068d82600061068d82612f6e565b82818337506000910152565b60005b83811015612fe7578181015183820152602001612fcf565b83811115610c385750506000910152565b601f01601f191690565b61300b81612f6e565b81146109be57600080fd5b61300b81612f79565b61300b8161048b565b61300b81612f7e56fea365627a7a72315820a5c0decfc7b8ade5470f348db73265c9605b66eee6c1aa2f5c992a214c77cf536c6578706572696d656e74616cf564736f6c63430005110040",
  "source": "// SPDX-License-Identifier: MIT\r\npragma solidity >= 0.5.0;\r\npragma experimental ABIEncoderV2;\r\n\r\nimport './ERC721Mintable.sol';\r\nimport './SquareVerifier.sol';\r\n\r\n// TODO define a contract call to the zokrates generated solidity contract <Verifier> or <renamedVerifier>\r\n// TODO define another contract named SolnSquareVerifier that inherits from your ERC721Mintable class\r\ncontract SolnSquareVerifier is ERC721Mintable, SquareVerifier {\r\n    uint256 public solutionCount; // for testing\r\n//    SquareVerifier private squareVerifier;\r\n\r\n    // TODO define a solutions struct that can hold an index & an address\r\n    struct Solution {\r\n        address tokenOwner;\r\n        uint256 tokenId;      \r\n    }\r\n\r\n    // TODO define an array of the above struct\r\n    Solution[] private solutions;\r\n    // TODO define a mapping to store unique solutions submitted\r\n    // Give tokenId => Return array position\r\n    mapping(uint256 => uint) private solutionMappings;\r\n\r\n    // TODO Create an event to emit when a solution is added\r\n    event SolutionAdded(Solution solution); \r\n\r\n    constructor(string memory name, string memory symbol, string memory baseTokenURI) \r\n        ERC721Mintable(name, symbol, baseTokenURI) public {\r\n        solutionCount = 0;\r\n    }\r\n    // TODO Create a function to add the solutions to the array and emit the event\r\n    function AddSolution(   \r\n            address tokenAddress,\r\n            uint256 tokenId,            \r\n            uint[2] memory a,\r\n            uint[2][2] memory b,\r\n            uint[2] memory c,\r\n            uint[2] memory input\r\n            ) public {\r\n        require(tokenAddress != address(0), \"Invalid Address\");\r\n        if(solutionMappings[tokenId] != 0) // Solution already exists for this token\r\n            return;\r\n        bool validProof = verifyTx( a, \r\n                                    b, \r\n                                    c, \r\n                                    input);\r\n        require(validProof, \"SolnSquareVerifier: Invalid Proof\");\r\n        Solution memory sol = Solution( {   tokenOwner: tokenAddress,\r\n                                            tokenId: tokenId\r\n                                        });\r\n        solutions.push(sol);\r\n        solutionMappings[tokenId] = solutions.length; //to reference solution in array will need to subtract 1. Not doing it here because checking for existence by checking for zero\r\n        solutionCount++;\r\n        emit SolutionAdded(sol);\r\n    }\r\n\r\n    // TODO Create a function to mint new NFT only after the solution has been verified\r\n    //  - make sure the solution is unique (has not been used before)\r\n    //  - make sure you handle metadata as well as tokenSupply\r\n    function mintNewNFT(address tokenAddress, \r\n                        uint256 tokenId, \r\n                        uint[2] memory a,\r\n                        uint[2][2] memory b,\r\n                        uint[2] memory c,\r\n                        uint[2] memory input) public {\r\n        AddSolution(tokenAddress, tokenId, a, b, c, input);\r\n        // Don't use the tokenAddress passed in, solution may have been added previously\r\n        // Need to use the token address for the solution\r\n        // solutions[array_position].tokenOwner\r\n        // solutionMappings[tokenId] returns the LENGTH of the array at the time of adding\r\n        // solutionMappings[tokenId]-1 returns the arrat position of the solution\r\n        //          require(tokenAddress == solutions[solutionMappings[tokenId]-1].tokenOwner, \"SolnSquareVerifier: You must be the owner to mint this token\");\r\n        mint(solutions[solutionMappings[tokenId]-1].tokenOwner, tokenId);    \r\n    }\r\n}\r\n",
  "sourcePath": "D:\\Source\\Udacity\\UdacityCapstone\\eth-contracts\\contracts\\SolnSquareVerifier.sol",
  "compiler": {
    "name": "solc",
    "version": "0.5.17+commit.d19bba13.Emscripten.clang"
  },
  "schemaVersion": "3.4.3",
  "updatedAt": "2021-10-29T06:04:57.494Z",
  "devdoc": {
    "methods": {
      "isApprovedForAll(address,address)": {
        "details": "Tells whether an operator is approved by a given owner",
        "params": {
          "operator": "operator address which you want to query the approval of",
          "owner": "owner address which you want to query the approval of"
        },
        "return": "bool whether the given operator is approved by the given owner"
      },
      "setApprovalForAll(address,bool)": {
        "details": "Sets or unsets the approval of a given operator An operator is allowed to transfer all tokens of the sender on their behalf",
        "params": {
          "approved": "representing the status of the approval to be set",
          "to": "operator address to set the approval"
        }
      },
      "supportsInterface(bytes4)": {
        "details": "implement supportsInterface(bytes4) using a lookup table"
      },
      "tokenByIndex(uint256)": {
        "details": "Gets the token ID at a given index of all the tokens in this contract Reverts if the index is greater or equal to the total number of tokens",
        "params": {
          "index": "uint256 representing the index to be accessed of the tokens list"
        },
        "return": "uint256 token ID at the given index of the tokens list"
      },
      "tokenOfOwnerByIndex(address,uint256)": {
        "details": "Gets the token ID at a given index of the tokens list of the requested owner",
        "params": {
          "index": "uint256 representing the index to be accessed of the requested tokens list",
          "owner": "address owning the tokens list to be accessed"
        },
        "return": "uint256 token ID at the given index of the tokens list owned by the requested address"
      },
      "totalSupply()": {
        "details": "Gets the total amount of tokens stored by the contract",
        "return": "uint256 representing the total amount of tokens"
      }
    }
  },
  "userdoc": {
    "methods": {}
  }
}